{
  "_format": "hh-sol-artifact-1",
  "contractName": "CollectionFactory",
  "sourceName": "contracts/CollectionFactory.sol",
  "abi": [
    {
      "inputs": [],
      "stateMutability": "nonpayable",
      "type": "constructor"
    },
    {
      "anonymous": false,
      "inputs": [
        {
          "indexed": true,
          "internalType": "contract Collection",
          "name": "collection",
          "type": "address"
        },
        {
          "indexed": false,
          "internalType": "string",
          "name": "name",
          "type": "string"
        },
        {
          "indexed": false,
          "internalType": "string",
          "name": "symbol",
          "type": "string"
        },
        {
          "indexed": false,
          "internalType": "contract IEngine",
          "name": "engine",
          "type": "address"
        },
        {
          "indexed": false,
          "internalType": "address",
          "name": "owner",
          "type": "address"
        }
      ],
      "name": "CollectionCreated",
      "type": "event"
    },
    {
      "inputs": [
        {
          "internalType": "string",
          "name": "name",
          "type": "string"
        },
        {
          "internalType": "string",
          "name": "symbol",
          "type": "string"
        },
        {
          "internalType": "contract IEngine",
          "name": "engine",
          "type": "address"
        },
        {
          "internalType": "address",
          "name": "owner",
          "type": "address"
        }
      ],
      "name": "createCollection",
      "outputs": [
        {
          "internalType": "contract Collection",
          "name": "",
          "type": "address"
        }
      ],
      "stateMutability": "nonpayable",
      "type": "function"
    },
    {
      "inputs": [],
      "name": "implementation",
      "outputs": [
        {
          "internalType": "contract Collection",
          "name": "",
          "type": "address"
        }
      ],
      "stateMutability": "view",
      "type": "function"
    }
  ],
  "bytecode": "0x60a060405234801561001057600080fd5b5060405161001d9061004b565b604051809103906000f080158015610039573d6000803e3d6000fd5b506001600160a01b0316608052610058565b612dd28061043583390190565b6080516103bd6100786000396000818160400152609401526103bd6000f3fe608060405234801561001057600080fd5b50600436106100365760003560e01c80635c60da1b1461003b578063bdca8aa31461007e575b600080fd5b6100627f000000000000000000000000000000000000000000000000000000000000000081565b6040516001600160a01b03909116815260200160405180910390f35b61006261008c36600461027b565b6000806100b87f0000000000000000000000000000000000000000000000000000000000000000610179565b6040516323c56d0560e21b81529091506001600160a01b03821690638f15b414906100f1908b908b908b908b908b908b90600401610339565b600060405180830381600087803b15801561010b57600080fd5b505af115801561011f573d6000803e3d6000fd5b50505050806001600160a01b03167f97be82f4a0bf91627b5898af4247eff9a92776d30e939b75c10db9f761ea75cb89898989898960405161016696959493929190610339565b60405180910390a2979650505050505050565b6000604051733d602d80600a3d3981f3363d3d373d3d3d363d7360601b81528260601b60148201526e5af43d82803e903d91602b57fd5bf360881b60288201526037816000f09150506001600160a01b0381166102155760405162461bcd60e51b8152602060048201526016602482015275115490cc4c4d8dce8818dc99585d194819985a5b195960521b604482015260640160405180910390fd5b919050565b60008083601f84011261022c57600080fd5b50813567ffffffffffffffff81111561024457600080fd5b60208301915083602082850101111561025c57600080fd5b9250929050565b6001600160a01b038116811461027857600080fd5b50565b6000806000806000806080878903121561029457600080fd5b863567ffffffffffffffff808211156102ac57600080fd5b6102b88a838b0161021a565b909850965060208901359150808211156102d157600080fd5b506102de89828a0161021a565b90955093505060408701356102f281610263565b9150606087013561030281610263565b809150509295509295509295565b81835281816020850137506000828201602090810191909152601f909101601f19169091010190565b60808152600061034d60808301888a610310565b8281036020840152610360818789610310565b6001600160a01b03958616604085015293909416606090920191909152509594505050505056fea2646970667358221220016580961fd37dea37afbb065b2a8ef079136f69f104dd9b6a836669c789743764736f6c63430008090033608060405234801561001057600080fd5b50612db2806100206000396000f3fe608060405234801561001057600080fd5b50600436106101da5760003560e01c8063847b284711610104578063b8c33889116100a2578063ca0b68af11610071578063ca0b68af14610409578063cc89f9621461041c578063e985e9c51461042f578063f2fde38b1461046b57600080fd5b8063b8c33889146103bd578063c0f53f3d146103d0578063c87b56dd146103e3578063c9a7a7c4146103f657600080fd5b806395d89b41116100de57806395d89b411461037c578063a22cb46514610384578063a66103aa14610397578063b88d4fde146103aa57600080fd5b8063847b2847146103455780638da5cb5b146103585780638f15b4141461036957600080fd5b806323b872dd1161017c5780636352211e1161014b5780636352211e1461030e57806370a0823114610321578063715018a61461033457806375794a3c1461033c57600080fd5b806323b872dd146102a35780632a55205a146102b65780634102a30c146102e857806342842e0e146102fb57600080fd5b8063081812fc116101b8578063081812fc1461023d578063095ea7b3146102685780630a0c3e5e1461027d5780631e3c7b881461029057600080fd5b806301ffc9a7146101df578063036217ab1461020757806306fdde0314610228575b600080fd5b6101f26101ed366004612208565b61047e565b60405190151581526020015b60405180910390f35b61021a61021536600461227a565b6104c5565b6040519081526020016101fe565b610230610510565b6040516101fe919061232b565b61025061024b36600461233e565b6105a2565b6040516001600160a01b0390911681526020016101fe565b61027b61027636600461236c565b61063c565b005b61027b61028b366004612398565b610752565b61023061029e3660046123f1565b6107a3565b61027b6102b1366004612443565b61087a565b6102c96102c4366004612484565b6108ab565b604080516001600160a01b0390931683526020830191909152016101fe565b60c954610250906001600160a01b031681565b61027b610309366004612443565b610944565b61025061031c36600461233e565b61095f565b61021a61032f3660046124a6565b6109d6565b61027b610a5d565b61021a60ca5481565b61021a6103533660046123f1565b610a93565b6097546001600160a01b0316610250565b61027b6103773660046124c3565b610ad9565b610230610bd5565b61027b610392366004612565565b610be4565b61027b6103a536600461259e565b610bf3565b61027b6103b836600461266c565b610c47565b61027b6103cb36600461271a565b610c79565b6102306103de36600461227a565b610cf6565b6102306103f136600461233e565b610dd0565b61027b6104043660046124a6565b610e57565b61021a61041736600461279a565b610e8d565b61027b61042a3660046127e5565b611248565b6101f261043d36600461286e565b6001600160a01b039182166000908152606a6020908152604080832093909416825291909152205460ff1690565b61027b6104793660046124a6565b6112cf565b600061048982611367565b806104a457506001600160e01b0319821663152a902d60e11b145b806104bf57506001600160e01b031982166301ffc9a760e01b145b92915050565b600080858585856040516020016104df94939291906128d7565b60408051601f198184030181529181528151602092830120600090815260cc9092529020549150505b949350505050565b60606065805461051f906128ff565b80601f016020809104026020016040519081016040528092919081815260200182805461054b906128ff565b80156105985780601f1061056d57610100808354040283529160200191610598565b820191906000526020600020905b81548152906001019060200180831161057b57829003601f168201915b5050505050905090565b6000818152606760205260408120546001600160a01b03166106205760405162461bcd60e51b815260206004820152602c60248201527f4552433732313a20617070726f76656420717565727920666f72206e6f6e657860448201526b34b9ba32b73a103a37b5b2b760a11b60648201526084015b60405180910390fd5b506000908152606960205260409020546001600160a01b031690565b60006106478261095f565b9050806001600160a01b0316836001600160a01b031614156106b55760405162461bcd60e51b815260206004820152602160248201527f4552433732313a20617070726f76616c20746f2063757272656e74206f776e656044820152603960f91b6064820152608401610617565b336001600160a01b03821614806106d157506106d1813361043d565b6107435760405162461bcd60e51b815260206004820152603860248201527f4552433732313a20617070726f76652063616c6c6572206973206e6f74206f7760448201527f6e6572206e6f7220617070726f76656420666f7220616c6c00000000000000006064820152608401610617565b61074d83836113b7565b505050565b61075b84611425565b61079d8484848080601f0160208091040260200160405190810160405280939291908181526020018383808284376000920191909152508692506114b1915050565b50505050565b606060008484846040516020016107bc9392919061293a565b60405160208183030381529060405280519060200120905060cb600082815260200190815260200160002080546107f2906128ff565b80601f016020809104026020016040519081016040528092919081815260200182805461081e906128ff565b801561086b5780601f106108405761010080835404028352916020019161086b565b820191906000526020600020905b81548152906001019060200180831161084e57829003601f168201915b50505050509150509392505050565b610884338261154f565b6108a05760405162461bcd60e51b81526004016106179061295b565b61074d838383611642565b60c954604051631b6f4ba160e11b8152306004820152602481018490526044810183905260009182916001600160a01b03909116906336de974290606401604080518083038186803b15801561090057600080fd5b505afa158015610914573d6000803e3d6000fd5b505050506040513d601f19601f8201168201806040525081019061093891906129ac565b915091505b9250929050565b61074d83838360405180602001604052806000815250610c47565b6000818152606760205260408120546001600160a01b0316806104bf5760405162461bcd60e51b815260206004820152602960248201527f4552433732313a206f776e657220717565727920666f72206e6f6e657869737460448201526832b73a103a37b5b2b760b91b6064820152608401610617565b60006001600160a01b038216610a415760405162461bcd60e51b815260206004820152602a60248201527f4552433732313a2062616c616e636520717565727920666f7220746865207a65604482015269726f206164647265737360b01b6064820152608401610617565b506001600160a01b031660009081526068602052604090205490565b6097546001600160a01b03163314610a875760405162461bcd60e51b8152600401610617906129da565b610a9160006117ed565b565b600080848484604051602001610aab9392919061293a565b60408051808303601f190181529181528151602092830120600090815260cc90925290205495945050505050565b600054610100900460ff1680610af2575060005460ff16155b610b0e5760405162461bcd60e51b815260040161061790612a0f565b600054610100900460ff16158015610b30576000805461ffff19166101011790555b610ba387878080601f01602080910402602001604051908101604052809392919081815260200183838082843760009201919091525050604080516020601f8b01819004810282018101909252898152925089915088908190840183828082843760009201919091525061183f92505050565b610bac826117ed565b610bb5836118c6565b600160ca558015610bcc576000805461ff00191690555b50505050505050565b60606066805461051f906128ff565b610bef3383836119d1565b5050565b610bfd8585611aa0565b610c40858585858080601f016020809104026020016040519081016040528093929190818152602001838380828437600092019190915250879250611b67915050565b5050505050565b610c51338361154f565b610c6d5760405162461bcd60e51b81526004016106179061295b565b61079d84848484611c09565b610c8285611425565b610c408585858080601f01602080910402602001604051908101604052809392919081815260200183838082843760009201919091525050604080516020601f89018190048102820181019092528781529250879150869081908401838280828437600092019190915250611c3c92505050565b6060600085858585604051602001610d1194939291906128d7565b60405160208183030381529060405280519060200120905060cb60008281526020019081526020016000208054610d47906128ff565b80601f0160208091040260200160405190810160405280929190818152602001828054610d73906128ff565b8015610dc05780601f10610d9557610100808354040283529160200191610dc0565b820191906000526020600020905b815481529060010190602001808311610da357829003601f168201915b5050505050915050949350505050565b60c9546040516305b1feb160e11b8152306004820152602481018390526060916001600160a01b031690630b63fd629060440160006040518083038186803b158015610e1b57600080fd5b505afa158015610e2f573d6000803e3d6000fd5b505050506040513d6000823e601f3d908101601f191682016040526104bf9190810190612a5d565b6097546001600160a01b03163314610e815760405162461bcd60e51b8152600401610617906129da565b610e8a816118c6565b50565b60c9546000906001600160a01b0316336001600160a01b031614610ec35760405162461bcd60e51b815260040161061790612ad3565b60ca805460009182610ed483612b14565b919050559050610ee48482611ce2565b60005b610ef460a0850185612b2f565b9050811015610ffa57610fe8600283610f1060a0880188612b2f565b85818110610f2057610f20612b78565b9050602002810190610f329190612b8e565b610f3c9080612bae565b8080601f016020809104026020016040519081016040528093929190818152602001838380828437600092019190915250610f7e9250505060a0890189612b2f565b86818110610f8e57610f8e612b78565b9050602002810190610fa09190612b8e565b610fae906020810190612bae565b8080601f016020809104026020016040519081016040528093929190818152602001838380828437600092019190915250611e3092505050565b80610ff281612b14565b915050610ee7565b5060005b61100b60c0850185612b2f565b90508110156110d2576110c060028361102760c0880188612b2f565b8581811061103757611037612b78565b90506020028101906110499190612b8e565b6110539080612bae565b8080601f0160208091040260200160405190810160405280939291908181526020018383808284376000920191909152506110959250505060c0890189612b2f565b868181106110a5576110a5612b78565b90506020028101906110b79190612b8e565b60200135611b67565b806110ca81612b14565b915050610ffe565b506110e06020840184612bf4565b1561111d57604080518082019091526006815265656e67696e6560d01b602082015260c95461111d916003918491906001600160a01b0316611b67565b61112d6040840160208501612bf4565b1561116e5761116e600382604051806040016040528060088152602001676d696e746564427960c01b8152506111603390565b6001600160a01b0316611b67565b61117e6060840160408501612bf4565b156111b9576111b9600382604051806040016040528060088152602001676d696e746564546f60c01b815250876001600160a01b0316611b67565b6111c96080840160608501612bf4565b156111fc576111fc60038260405180604001604052806009815260200168074696d657374616d760bc1b81525042611b67565b61120c60a0840160808501612bf4565b15611241576112416003826040518060400160405280600b81526020016a313637b1b5a73ab6b132b960a91b81525043611b67565b9392505050565b6112528686611aa0565b6112c7868686868080601f01602080910402602001604051908101604052809392919081815260200183838082843760009201919091525050604080516020601f8a018190048102820181019092528881529250889150879081908401838280828437600092019190915250611e3092505050565b505050505050565b6097546001600160a01b031633146112f95760405162461bcd60e51b8152600401610617906129da565b6001600160a01b03811661135e5760405162461bcd60e51b815260206004820152602660248201527f4f776e61626c653a206e6577206f776e657220697320746865207a65726f206160448201526564647265737360d01b6064820152608401610617565b610e8a816117ed565b60006001600160e01b031982166380ac58cd60e01b148061139857506001600160e01b03198216635b5e139f60e01b145b806104bf57506301ffc9a760e01b6001600160e01b03198316146104bf565b600081815260696020526040902080546001600160a01b0319166001600160a01b03841690811790915581906113ec8261095f565b6001600160a01b03167f8c5be1e5ebec7d5bd14f71427d1e84f3dd0314c0f7b2291e5b200ac8c7c3b92560405160405180910390a45050565b60018160038111156114395761143961289c565b14156114725760c9546001600160a01b0316336001600160a01b031614610e8a5760405162461bcd60e51b815260040161061790612ad3565b60405162461bcd60e51b81526020600482015260146024820152737368656c6c3a20696e76616c696420777269746560601b6044820152606401610617565b600083836040516020016114c6929190612c11565b60408051601f198184030181528282528051602091820120600081815260cc90925291902084905591506114fb908490612c3e565b60405180910390208460038111156115155761151561289c565b6040518481527fa053a9b9e0385b96b57cee5ab57a5f76edaeeaddeb52f90c2daa8e75652d6ca1906020015b60405180910390a350505050565b6000818152606760205260408120546001600160a01b03166115c85760405162461bcd60e51b815260206004820152602c60248201527f4552433732313a206f70657261746f7220717565727920666f72206e6f6e657860448201526b34b9ba32b73a103a37b5b2b760a11b6064820152608401610617565b60006115d38361095f565b9050806001600160a01b0316846001600160a01b0316148061160e5750836001600160a01b0316611603846105a2565b6001600160a01b0316145b8061050857506001600160a01b038082166000908152606a602090815260408083209388168352929052205460ff16610508565b826001600160a01b03166116558261095f565b6001600160a01b0316146116bd5760405162461bcd60e51b815260206004820152602960248201527f4552433732313a207472616e73666572206f6620746f6b656e2074686174206960448201526839903737ba1037bbb760b91b6064820152608401610617565b6001600160a01b03821661171f5760405162461bcd60e51b8152602060048201526024808201527f4552433732313a207472616e7366657220746f20746865207a65726f206164646044820152637265737360e01b6064820152608401610617565b61172a838383611ed9565b6117356000826113b7565b6001600160a01b038316600090815260686020526040812080546001929061175e908490612c50565b90915550506001600160a01b038216600090815260686020526040812080546001929061178c908490612c67565b909155505060008181526067602052604080822080546001600160a01b0319166001600160a01b0386811691821790925591518493918716917fddf252ad1be2c89b69c2b068fc378daa952ba7f163c4a11628f55a4df523b3ef91a4505050565b609780546001600160a01b038381166001600160a01b0319831681179093556040519116919082907f8be0079c531659141344cd1fd0a4f28419497f9722a3daafe3b4186f6b6457e090600090a35050565b600054610100900460ff1680611858575060005460ff16155b6118745760405162461bcd60e51b815260040161061790612a0f565b600054610100900460ff16158015611896576000805461ffff19166101011790555b61189e611f4f565b6118a6611f4f565b6118b08383611fba565b801561074d576000805461ff0019169055505050565b6040516301ffc9a760e01b81526214063f60e71b60048201526001600160a01b038216906301ffc9a79060240160206040518083038186803b15801561190b57600080fd5b505afa15801561191f573d6000803e3d6000fd5b505050506040513d601f19601f820116820180604052508101906119439190612c7f565b6119875760405162461bcd60e51b81526020600482015260156024820152747368656c6c3a20696e76616c696420656e67696e6560581b6044820152606401610617565b60c980546001600160a01b0319166001600160a01b0383169081179091556040517fc025000b3eb797f8e47b27090b863e99fe6ca49d1291e6999840d85c3a4aa6c790600090a250565b816001600160a01b0316836001600160a01b03161415611a335760405162461bcd60e51b815260206004820152601960248201527f4552433732313a20617070726f766520746f2063616c6c6572000000000000006044820152606401610617565b6001600160a01b038381166000818152606a6020908152604080832094871680845294825291829020805460ff191686151590811790915591519182527f17307eab39ab6107e8899845ad3d59bd9653f200f220920489ca2b5937696c31910160405180910390a3505050565b6000826003811115611ab457611ab461289c565b1415611b1a57611ac38161095f565b6001600160a01b0316336001600160a01b031614610bef5760405162461bcd60e51b815260206004820152601460248201527339b432b6361d103737ba1037333a1037bbb732b960611b6044820152606401610617565b6001826003811115611b2e57611b2e61289c565b14156114725760c9546001600160a01b0316336001600160a01b031614610bef5760405162461bcd60e51b815260040161061790612ad3565b6000848484604051602001611b7e93929190612c9c565b60408051601f198184030181528282528051602091820120600081815260cc9092529190208490559150611bb3908490612c3e565b604051809103902084866003811115611bce57611bce61289c565b6040518581527f1f7d6b0e2c7b9053e25fd5a11370286e2c393aa98a6deb98341b4a45a9703ed9906020015b60405180910390a45050505050565b611c14848484611642565b611c208484848461204f565b61079d5760405162461bcd60e51b815260040161061790612cd0565b60008383604051602001611c51929190612c11565b60408051601f198184030181529181528151602092830120600081815260cb8452919091208451919350611c8a92909190850190612159565b5082604051611c999190612c3e565b6040518091039020846003811115611cb357611cb361289c565b7f2a8420f1058b2e9bb2976e5d844f65dc6037ba75f017549cc9532f962ac89e1d84604051611541919061232b565b6001600160a01b038216611d385760405162461bcd60e51b815260206004820181905260248201527f4552433732313a206d696e7420746f20746865207a65726f20616464726573736044820152606401610617565b6000818152606760205260409020546001600160a01b031615611d9d5760405162461bcd60e51b815260206004820152601c60248201527f4552433732313a20746f6b656e20616c7265616479206d696e746564000000006044820152606401610617565b611da960008383611ed9565b6001600160a01b0382166000908152606860205260408120805460019290611dd2908490612c67565b909155505060008181526067602052604080822080546001600160a01b0319166001600160a01b03861690811790915590518392907fddf252ad1be2c89b69c2b068fc378daa952ba7f163c4a11628f55a4df523b3ef908290a45050565b6000848484604051602001611e4793929190612c9c565b60408051601f198184030181529181528151602092830120600081815260cb8452919091208451919350611e8092909190850190612159565b5082604051611e8f9190612c3e565b604051809103902084866003811115611eaa57611eaa61289c565b7ffa0daffb33762695d4f24252774dfe2687db66512de5b07c240084cbddab692985604051611bfa919061232b565b60c9546040516301bdf3ad60e51b81523060048201526001600160a01b038581166024830152848116604483015260648201849052909116906337be75a090608401600060405180830381600087803b158015611f3557600080fd5b505af1925050508015611f46575060015b61074d57505050565b600054610100900460ff1680611f68575060005460ff16155b611f845760405162461bcd60e51b815260040161061790612a0f565b600054610100900460ff16158015611fa6576000805461ffff19166101011790555b8015610e8a576000805461ff001916905550565b600054610100900460ff1680611fd3575060005460ff16155b611fef5760405162461bcd60e51b815260040161061790612a0f565b600054610100900460ff16158015612011576000805461ffff19166101011790555b8251612024906065906020860190612159565b508151612038906066906020850190612159565b50801561074d576000805461ff0019169055505050565b60006001600160a01b0384163b1561215157604051630a85bd0160e11b81526001600160a01b0385169063150b7a0290612093903390899088908890600401612d22565b602060405180830381600087803b1580156120ad57600080fd5b505af19250505080156120dd575060408051601f3d908101601f191682019092526120da91810190612d5f565b60015b612137573d80801561210b576040519150601f19603f3d011682016040523d82523d6000602084013e612110565b606091505b50805161212f5760405162461bcd60e51b815260040161061790612cd0565b805181602001fd5b6001600160e01b031916630a85bd0160e11b149050610508565b506001610508565b828054612165906128ff565b90600052602060002090601f01602090048101928261218757600085556121cd565b82601f106121a057805160ff19168380011785556121cd565b828001600101855582156121cd579182015b828111156121cd5782518255916020019190600101906121b2565b506121d99291506121dd565b5090565b5b808211156121d957600081556001016121de565b6001600160e01b031981168114610e8a57600080fd5b60006020828403121561221a57600080fd5b8135611241816121f2565b80356004811061223457600080fd5b919050565b60008083601f84011261224b57600080fd5b5081356001600160401b0381111561226257600080fd5b60208301915083602082850101111561093d57600080fd5b6000806000806060858703121561229057600080fd5b61229985612225565b93506020850135925060408501356001600160401b038111156122bb57600080fd5b6122c787828801612239565b95989497509550505050565b60005b838110156122ee5781810151838201526020016122d6565b8381111561079d5750506000910152565b600081518084526123178160208601602086016122d3565b601f01601f19169290920160200192915050565b60208152600061124160208301846122ff565b60006020828403121561235057600080fd5b5035919050565b6001600160a01b0381168114610e8a57600080fd5b6000806040838503121561237f57600080fd5b823561238a81612357565b946020939093013593505050565b600080600080606085870312156123ae57600080fd5b6123b785612225565b935060208501356001600160401b038111156123d257600080fd5b6123de87828801612239565b9598909750949560400135949350505050565b60008060006040848603121561240657600080fd5b61240f84612225565b925060208401356001600160401b0381111561242a57600080fd5b61243686828701612239565b9497909650939450505050565b60008060006060848603121561245857600080fd5b833561246381612357565b9250602084013561247381612357565b929592945050506040919091013590565b6000806040838503121561249757600080fd5b50508035926020909101359150565b6000602082840312156124b857600080fd5b813561124181612357565b600080600080600080608087890312156124dc57600080fd5b86356001600160401b03808211156124f357600080fd5b6124ff8a838b01612239565b9098509650602089013591508082111561251857600080fd5b5061252589828a01612239565b909550935050604087013561253981612357565b9150606087013561254981612357565b809150509295509295509295565b8015158114610e8a57600080fd5b6000806040838503121561257857600080fd5b823561258381612357565b9150602083013561259381612557565b809150509250929050565b6000806000806000608086880312156125b657600080fd5b6125bf86612225565b94506020860135935060408601356001600160401b038111156125e157600080fd5b6125ed88828901612239565b96999598509660600135949350505050565b634e487b7160e01b600052604160045260246000fd5b604051601f8201601f191681016001600160401b038111828210171561263d5761263d6125ff565b604052919050565b60006001600160401b0382111561265e5761265e6125ff565b50601f01601f191660200190565b6000806000806080858703121561268257600080fd5b843561268d81612357565b9350602085013561269d81612357565b92506040850135915060608501356001600160401b038111156126bf57600080fd5b8501601f810187136126d057600080fd5b80356126e36126de82612645565b612615565b8181528860208385010111156126f857600080fd5b8160208401602083013760006020838301015280935050505092959194509250565b60008060008060006060868803121561273257600080fd5b61273b86612225565b945060208601356001600160401b038082111561275757600080fd5b61276389838a01612239565b9096509450604088013591508082111561277c57600080fd5b5061278988828901612239565b969995985093965092949392505050565b600080604083850312156127ad57600080fd5b82356127b881612357565b915060208301356001600160401b038111156127d357600080fd5b830160e0818603121561259357600080fd5b600080600080600080608087890312156127fe57600080fd5b61280787612225565b95506020870135945060408701356001600160401b038082111561282a57600080fd5b6128368a838b01612239565b9096509450606089013591508082111561284f57600080fd5b5061285c89828a01612239565b979a9699509497509295939492505050565b6000806040838503121561288157600080fd5b823561288c81612357565b9150602083013561259381612357565b634e487b7160e01b600052602160045260246000fd5b600481106128d057634e487b7160e01b600052602160045260246000fd5b60f81b9052565b6128e181866128b2565b83600182015281836021830137600091016021019081529392505050565b600181811c9082168061291357607f821691505b6020821081141561293457634e487b7160e01b600052602260045260246000fd5b50919050565b61294481856128b2565b818360018301376000910160010190815292915050565b60208082526031908201527f4552433732313a207472616e736665722063616c6c6572206973206e6f74206f6040820152701ddb995c881b9bdc88185c1c1c9bdd9959607a1b606082015260800190565b600080604083850312156129bf57600080fd5b82516129ca81612357565b6020939093015192949293505050565b6020808252818101527f4f776e61626c653a2063616c6c6572206973206e6f7420746865206f776e6572604082015260600190565b6020808252602e908201527f496e697469616c697a61626c653a20636f6e747261637420697320616c72656160408201526d191e481a5b9a5d1a585b1a5e995960921b606082015260800190565b600060208284031215612a6f57600080fd5b81516001600160401b03811115612a8557600080fd5b8201601f81018413612a9657600080fd5b8051612aa46126de82612645565b818152856020838501011115612ab957600080fd5b612aca8260208301602086016122d3565b95945050505050565b6020808252601190820152707368656c6c3a206e6f7420656e67696e6560781b604082015260600190565b634e487b7160e01b600052601160045260246000fd5b6000600019821415612b2857612b28612afe565b5060010190565b6000808335601e19843603018112612b4657600080fd5b8301803591506001600160401b03821115612b6057600080fd5b6020019150600581901b360382131561093d57600080fd5b634e487b7160e01b600052603260045260246000fd5b60008235603e19833603018112612ba457600080fd5b9190910192915050565b6000808335601e19843603018112612bc557600080fd5b8301803591506001600160401b03821115612bdf57600080fd5b60200191503681900382131561093d57600080fd5b600060208284031215612c0657600080fd5b813561124181612557565b612c1b81846128b2565b60008251612c308160018501602087016122d3565b919091016001019392505050565b60008251612ba48184602087016122d3565b600082821015612c6257612c62612afe565b500390565b60008219821115612c7a57612c7a612afe565b500190565b600060208284031215612c9157600080fd5b815161124181612557565b612ca681856128b2565b82600182015260008251612cc18160218501602087016122d3565b91909101602101949350505050565b60208082526032908201527f4552433732313a207472616e7366657220746f206e6f6e20455243373231526560408201527131b2b4bb32b91034b6b83632b6b2b73a32b960711b606082015260800190565b6001600160a01b0385811682528416602082015260408101839052608060608201819052600090612d55908301846122ff565b9695505050505050565b600060208284031215612d7157600080fd5b8151611241816121f256fea26469706673582212201f6cecace622cab958ed5ff0345d7038e3fb0dddc701434483840f903c9f508064736f6c63430008090033",
  "linkReferences": {},
  "deployedLinkReferences": {}
}