{
  "_format": "hh-sol-artifact-1",
  "contractName": "ShellFactory",
  "sourceName": "contracts/ShellFactory.sol",
  "abi": [
    {
      "inputs": [],
      "stateMutability": "nonpayable",
      "type": "constructor"
    },
    {
      "anonymous": false,
      "inputs": [
        {
          "indexed": false,
          "internalType": "contract IShellFramework",
          "name": "collection",
          "type": "address"
        },
        {
          "indexed": false,
          "internalType": "string",
          "name": "name",
          "type": "string"
        },
        {
          "indexed": false,
          "internalType": "string",
          "name": "symbol",
          "type": "string"
        },
        {
          "indexed": false,
          "internalType": "contract IEngine",
          "name": "engine",
          "type": "address"
        },
        {
          "indexed": false,
          "internalType": "address",
          "name": "owner",
          "type": "address"
        }
      ],
      "name": "CollectionCreated",
      "type": "event"
    },
    {
      "inputs": [
        {
          "internalType": "string",
          "name": "name",
          "type": "string"
        },
        {
          "internalType": "string",
          "name": "symbol",
          "type": "string"
        },
        {
          "internalType": "contract IEngine",
          "name": "engine",
          "type": "address"
        },
        {
          "internalType": "address",
          "name": "owner",
          "type": "address"
        }
      ],
      "name": "createCollection",
      "outputs": [
        {
          "internalType": "contract IShellFramework",
          "name": "",
          "type": "address"
        }
      ],
      "stateMutability": "nonpayable",
      "type": "function"
    },
    {
      "inputs": [],
      "name": "implementation",
      "outputs": [
        {
          "internalType": "contract ShellERC721",
          "name": "",
          "type": "address"
        }
      ],
      "stateMutability": "view",
      "type": "function"
    }
  ],
  "bytecode": "0x60a060405234801561001057600080fd5b5060405161001d9061004b565b604051809103906000f080158015610039573d6000803e3d6000fd5b506001600160a01b0316608052610058565b6131b68061048083390190565b6080516104086100786000396000818160400152609401526104086000f3fe608060405234801561001057600080fd5b50600436106100365760003560e01c80635c60da1b1461003b578063bdca8aa31461007e575b600080fd5b6100627f000000000000000000000000000000000000000000000000000000000000000081565b6040516001600160a01b03909116815260200160405180910390f35b61006261008c366004610273565b6000806100b87f0000000000000000000000000000000000000000000000000000000000000000610171565b6040516323c56d0560e21b81529091506001600160a01b03821690638f15b414906100f1908b908b908b908b908b908b90600401610331565b600060405180830381600087803b15801561010b57600080fd5b505af115801561011f573d6000803e3d6000fd5b505050507f97be82f4a0bf91627b5898af4247eff9a92776d30e939b75c10db9f761ea75cb8189898989898960405161015e979695949392919061037f565b60405180910390a1979650505050505050565b6000604051733d602d80600a3d3981f3363d3d373d3d3d363d7360601b81528260601b60148201526e5af43d82803e903d91602b57fd5bf360881b60288201526037816000f09150506001600160a01b03811661020d5760405162461bcd60e51b8152602060048201526016602482015275115490cc4c4d8dce8818dc99585d194819985a5b195960521b604482015260640160405180910390fd5b919050565b60008083601f84011261022457600080fd5b50813567ffffffffffffffff81111561023c57600080fd5b60208301915083602082850101111561025457600080fd5b9250929050565b6001600160a01b038116811461027057600080fd5b50565b6000806000806000806080878903121561028c57600080fd5b863567ffffffffffffffff808211156102a457600080fd5b6102b08a838b01610212565b909850965060208901359150808211156102c957600080fd5b506102d689828a01610212565b90955093505060408701356102ea8161025b565b915060608701356102fa8161025b565b809150509295509295509295565b81835281816020850137506000828201602090810191909152601f909101601f19169091010190565b60808152600061034560808301888a610308565b8281036020840152610358818789610308565b6001600160a01b039586166040850152939094166060909201919091525095945050505050565b600060018060a01b03808a16835260a060208401526103a260a08401898b610308565b83810360408501526103b581888a610308565b95821660608501525092909216608090910152509594505050505056fea2646970667358221220c37b76671fb45b7f732b8619471577d22c830543f89fe86df38e4e2ea82b699d64736f6c63430008090033608060405234801561001057600080fd5b50613196806100206000396000f3fe608060405234801561001057600080fd5b50600436106102065760003560e01c8063869e039e1161011a578063c0f53f3d116100ad578063cc89f9621161007c578063cc89f96214610474578063ddb114c114610487578063e985e9c51461049a578063f2fde38b146104d6578063fc4fad29146104e957600080fd5b8063c0f53f3d14610428578063c4445ead1461043b578063c87b56dd1461044e578063c9a7a7c41461046157600080fd5b8063a22cb465116100e9578063a22cb465146103dc578063a66103aa146103ef578063b88d4fde14610402578063b8c338891461041557600080fd5b8063869e039e146103975780638da5cb5b146103aa5780638f15b414146103c157806395d89b41146103d457600080fd5b80632a55205a1161019d57806370a082311161016c57806370a082311461034d578063715018a61461036057806375794a3c14610368578063819384ac14610371578063847b28471461038457600080fd5b80632a55205a146102e25780634102a30c1461031457806342842e0e146103275780636352211e1461033a57600080fd5b8063095ea7b3116101d9578063095ea7b3146102945780630a0c3e5e146102a95780631e3c7b88146102bc57806323b872dd146102cf57600080fd5b806301ffc9a71461020b578063036217ab1461023357806306fdde0314610254578063081812fc14610269575b600080fd5b61021e6102193660046122d7565b6104fc565b60405190151581526020015b60405180910390f35b610246610241366004612349565b610537565b60405190815260200161022a565b61025c610582565b60405161022a91906123fa565b61027c61027736600461240d565b610591565b6040516001600160a01b03909116815260200161022a565b6102a76102a236600461243b565b61062b565b005b6102a76102b7366004612467565b610741565b61025c6102ca3660046124c0565b610792565b6102a76102dd366004612512565b610869565b6102f56102f0366004612553565b61089a565b604080516001600160a01b03909316835260208301919091520161022a565b60015461027c906001600160a01b031681565b6102a7610335366004612512565b610933565b61027c61034836600461240d565b61094e565b61024661035b366004612575565b6109c5565b6102a7610a4c565b610246609a5481565b6102a761037f3660046125a1565b610a89565b6102466103923660046124c0565b610ad8565b6102a76103a5366004612602565b610b1e565b6000546201000090046001600160a01b031661027c565b6102a76103cf36600461268b565b610b70565b61025c610cb1565b6102a76103ea36600461272d565b610cbb565b6102a76103fd366004612766565b610cca565b6102a76104103660046127f4565b610d1d565b6102a76104233660046128a2565b610d4f565b61025c610436366004612349565b610dcc565b6102a7610449366004612922565b610ea6565b61025c61045c36600461240d565b610ee6565b6102a761046f366004612575565b610f6d565b6102a7610482366004612943565b610faa565b6102a7610495366004612965565b611030565b61021e6104a8366004612984565b6001600160a01b039182166000908152606d6020908152604080832093909416825291909152205460ff1690565b6102a76104e4366004612575565b61107c565b6102466104f73660046129b2565b611116565b600061050782611477565b8061052257506001600160e01b03198216634464975960e11b145b806105315750610531826114c8565b92915050565b600080858585856040516020016105519493929190612a2a565b60408051601f198184030181529181528151602092830120600090815260039092529020549150505b949350505050565b606061058c611518565b905090565b6000818152606a60205260408120546001600160a01b031661060f5760405162461bcd60e51b815260206004820152602c60248201527f4552433732313a20617070726f76656420717565727920666f72206e6f6e657860448201526b34b9ba32b73a103a37b5b2b760a11b60648201526084015b60405180910390fd5b506000908152606c60205260409020546001600160a01b031690565b60006106368261094e565b9050806001600160a01b0316836001600160a01b031614156106a45760405162461bcd60e51b815260206004820152602160248201527f4552433732313a20617070726f76616c20746f2063757272656e74206f776e656044820152603960f91b6064820152608401610606565b336001600160a01b03821614806106c057506106c081336104a8565b6107325760405162461bcd60e51b815260206004820152603860248201527f4552433732313a20617070726f76652063616c6c6572206973206e6f74206f7760448201527f6e6572206e6f7220617070726f76656420666f7220616c6c00000000000000006064820152608401610606565b61073c83836115aa565b505050565b61074a84611618565b61078c8484848080601f0160208091040260200160405190810160405280939291908181526020018383808284376000920191909152508692506116a3915050565b50505050565b606060008484846040516020016107ab93929190612a52565b6040516020818303038152906040528051906020012090506002600082815260200190815260200160002080546107e190612a73565b80601f016020809104026020016040519081016040528092919081815260200182805461080d90612a73565b801561085a5780601f1061082f5761010080835404028352916020019161085a565b820191906000526020600020905b81548152906001019060200180831161083d57829003601f168201915b50505050509150509392505050565b6108733382611713565b61088f5760405162461bcd60e51b815260040161060690612aae565b61073c838383611806565b600154604051631b6f4ba160e11b8152306004820152602481018490526044810183905260009182916001600160a01b03909116906336de974290606401604080518083038186803b1580156108ef57600080fd5b505afa158015610903573d6000803e3d6000fd5b505050506040513d601f19601f820116820180604052508101906109279190612aff565b915091505b9250929050565b61073c83838360405180602001604052806000815250610d1d565b6000818152606a60205260408120546001600160a01b0316806105315760405162461bcd60e51b815260206004820152602960248201527f4552433732313a206f776e657220717565727920666f72206e6f6e657869737460448201526832b73a103a37b5b2b760b91b6064820152608401610606565b60006001600160a01b038216610a305760405162461bcd60e51b815260206004820152602a60248201527f4552433732313a2062616c616e636520717565727920666f7220746865207a65604482015269726f206164647265737360b01b6064820152608401610606565b506001600160a01b03166000908152606b602052604090205490565b6000546001600160a01b0362010000909104163314610a7d5760405162461bcd60e51b815260040161060690612b2d565b610a8760006119b1565b565b610a9285611a0c565b7f5de69e04f7842459f5c80e3fd1b2b69a2c3d392e367e3dd637c5050dc333d4188585858585604051610ac9959493929190612ba1565b60405180910390a15050505050565b600080848484604051602001610af093929190612a52565b60408051808303601f1901815291815281516020928301206000908152600390925290205495945050505050565b610b2786611a0c565b7fcfcd0c7e57905ea40d63c78143aa14a85dd9d4717d548ca379cc641359945a45868686868686604051610b6096959493929190612bda565b60405180910390a1505050505050565b600054610100900460ff16610b8b5760005460ff1615610b8f565b303b155b610bf25760405162461bcd60e51b815260206004820152602e60248201527f496e697469616c697a61626c653a20636f6e747261637420697320616c72656160448201526d191e481a5b9a5d1a585b1a5e995960921b6064820152608401610606565b600054610100900460ff16158015610c14576000805461ffff19166101011790555b610c8787878080601f01602080910402602001604051908101604052809392919081815260200183838082843760009201919091525050604080516020601f8b018190048102820181019092528981529250899150889081908401838280828437600092019190915250611aae92505050565b610c918383611afc565b6001609a558015610ca8576000805461ff00191690555b50505050505050565b606061058c611b35565b610cc6338383611b44565b5050565b610cd385611618565b610d16858585858080601f016020809104026020016040519081016040528093929190818152602001838380828437600092019190915250879250611c13915050565b5050505050565b610d273383611713565b610d435760405162461bcd60e51b815260040161060690612aae565b61078c84848484611c87565b610d5885611618565b610d168585858080601f01602080910402602001604051908101604052809392919081815260200183838082843760009201919091525050604080516020601f89018190048102820181019092528781529250879150869081908401838280828437600092019190915250611cba92505050565b6060600085858585604051602001610de79493929190612a2a565b604051602081830303815290604052805190602001209050600260008281526020019081526020016000208054610e1d90612a73565b80601f0160208091040260200160405190810160405280929190818152602001828054610e4990612a73565b8015610e965780601f10610e6b57610100808354040283529160200191610e96565b820191906000526020600020905b815481529060010190602001808311610e7957829003601f168201915b5050505050915050949350505050565b610eaf85611a0c565b7f261657457e4ca4cf70c5aa313e67650735e0d0937d1c4a24908a8d691cda53628585858585604051610ac9959493929190612c21565b6001546040516305b1feb160e11b8152306004820152602481018390526060916001600160a01b031690630b63fd629060440160006040518083038186803b158015610f3157600080fd5b505afa158015610f45573d6000803e3d6000fd5b505050506040513d6000823e601f3d908101601f191682016040526105319190810190612c61565b6000546001600160a01b0362010000909104163314610f9e5760405162461bcd60e51b815260040161060690612b2d565b610fa781611d3c565b50565b610fb386611618565b611028868686868080601f01602080910402602001604051908101604052809392919081815260200183838082843760009201919091525050604080516020601f8a018190048102820181019092528881529250889150879081908401838280828437600092019190915250611e5292505050565b505050505050565b61103984611a0c565b7f782a7f9c63c9263d810c131d5836bd134f5fa4a177de20ef7c4881afd5f38e338484848460405161106e9493929190612cd7565b60405180910390a150505050565b6000546001600160a01b03620100009091041633146110ad5760405162461bcd60e51b815260040161060690612b2d565b6001600160a01b03811661110d5760405162461bcd60e51b815260206004820152602160248201527f4f776e61626c653a207472616e7366657220746f207a65726f206164647265736044820152607360f81b6064820152608401610606565b610fa7816119b1565b6001546000906001600160a01b031633146111435760405162461bcd60e51b815260040161060690612d09565b609a80546000918261115483612d4a565b9190505590506111648482611ed8565b60005b6111746080850185612d65565b905081101561127a576112686002836111906080880188612d65565b858181106111a0576111a0612dae565b90506020028101906111b29190612dc4565b6111bc9080612de4565b8080601f0160208091040260200160405190810160405280939291908181526020018383808284376000920191909152506111fe925050506080890189612d65565b8681811061120e5761120e612dae565b90506020028101906112209190612dc4565b61122e906020810190612de4565b8080601f016020809104026020016040519081016040528093929190818152602001838380828437600092019190915250611e5292505050565b8061127281612d4a565b915050611167565b5060005b61128b60a0850185612d65565b9050811015611352576113406002836112a760a0880188612d65565b858181106112b7576112b7612dae565b90506020028101906112c99190612dc4565b6112d39080612de4565b8080601f0160208091040260200160405190810160405280939291908181526020018383808284376000920191909152506113159250505060a0890189612d65565b8681811061132557611325612dae565b90506020028101906113379190612dc4565b60200135611c13565b8061134a81612d4a565b91505061127e565b506113606020840184612e2a565b1561139d57604080518082019091526006815265656e67696e6560d01b602082015260015461139d916003918491906001600160a01b0316611c13565b6113ad6040840160208501612e2a565b156113e8576113e8600382604051806040016040528060088152602001676d696e746564546f60c01b815250876001600160a01b0316611c13565b6113f86060840160408501612e2a565b1561142b5761142b60038260405180604001604052806009815260200168074696d657374616d760bc1b81525042611c13565b61143b6080840160608501612e2a565b15611470576114706003826040518060400160405280600b81526020016a313637b1b5a73ab6b132b960a91b81525043611c13565b9392505050565b60006001600160e01b0319821663424785c960e11b14806114a857506001600160e01b0319821663152a902d60e11b145b8061053157506001600160e01b031982166301ffc9a760e01b1492915050565b60006001600160e01b031982166380ac58cd60e01b14806114f957506001600160e01b03198216635b5e139f60e01b145b8061053157506301ffc9a760e01b6001600160e01b0319831614610531565b60606068805461152790612a73565b80601f016020809104026020016040519081016040528092919081815260200182805461155390612a73565b80156115a05780601f10611575576101008083540402835291602001916115a0565b820191906000526020600020905b81548152906001019060200180831161158357829003601f168201915b5050505050905090565b6000818152606c6020526040902080546001600160a01b0319166001600160a01b03841690811790915581906115df8261094e565b6001600160a01b03167f8c5be1e5ebec7d5bd14f71427d1e84f3dd0314c0f7b2291e5b200ac8c7c3b92560405160405180910390a45050565b6001546001600160a01b031633146116425760405162461bcd60e51b815260040161060690612d09565b6001816003811115611656576116566129fd565b14610fa75760405162461bcd60e51b815260206004820152601f60248201527f7368656c6c3a20696e76616c69642073746f72616765206c6f636174696f6e006044820152606401610606565b600083836040516020016116b8929190612e47565b60408051601f1981840301815282825280516020918201206000818152600390925291902084905591507fa053a9b9e0385b96b57cee5ab57a5f76edaeeaddeb52f90c2daa8e75652d6ca19061106e90869086908690612e84565b6000818152606a60205260408120546001600160a01b031661178c5760405162461bcd60e51b815260206004820152602c60248201527f4552433732313a206f70657261746f7220717565727920666f72206e6f6e657860448201526b34b9ba32b73a103a37b5b2b760a11b6064820152608401610606565b60006117978361094e565b9050806001600160a01b0316846001600160a01b031614806117d25750836001600160a01b03166117c784610591565b6001600160a01b0316145b8061057a57506001600160a01b038082166000908152606d602090815260408083209388168352929052205460ff1661057a565b826001600160a01b03166118198261094e565b6001600160a01b0316146118815760405162461bcd60e51b815260206004820152602960248201527f4552433732313a207472616e73666572206f6620746f6b656e2074686174206960448201526839903737ba1037bbb760b91b6064820152608401610606565b6001600160a01b0382166118e35760405162461bcd60e51b8152602060048201526024808201527f4552433732313a207472616e7366657220746f20746865207a65726f206164646044820152637265737360e01b6064820152608401610606565b6118ee838383612026565b6118f96000826115aa565b6001600160a01b0383166000908152606b60205260408120805460019290611922908490612eb4565b90915550506001600160a01b0382166000908152606b60205260408120805460019290611950908490612ecb565b90915550506000818152606a602052604080822080546001600160a01b0319166001600160a01b0386811691821790925591518493918716917fddf252ad1be2c89b69c2b068fc378daa952ba7f163c4a11628f55a4df523b3ef91a4505050565b600080546001600160a01b038381166201000081810262010000600160b01b0319851617855560405193049190911692909183917f8be0079c531659141344cd1fd0a4f28419497f9722a3daafe3b4186f6b6457e091a35050565b6001816002811115611a2057611a206129fd565b1415611a295750565b6002816002811115611a3d57611a3d6129fd565b1415611a6d576001546001600160a01b03163314611a6d5760405162461bcd60e51b815260040161060690612d09565b60405162461bcd60e51b81526020600482015260166024820152750e6d0cad8d87440d2dcecc2d8d2c840e0eac4d8d2e6d60531b6044820152606401610606565b600054610100900460ff16611ad55760405162461bcd60e51b815260040161060690612ee3565b8151611ae8906068906020850190612228565b50805161073c906069906020840190612228565b600054610100900460ff16611b235760405162461bcd60e51b815260040161060690612ee3565b611b2c816119b1565b610cc682611d3c565b60606069805461152790612a73565b816001600160a01b0316836001600160a01b03161415611ba65760405162461bcd60e51b815260206004820152601960248201527f4552433732313a20617070726f766520746f2063616c6c6572000000000000006044820152606401610606565b6001600160a01b038381166000818152606d6020908152604080832094871680845294825291829020805460ff191686151590811790915591519182527f17307eab39ab6107e8899845ad3d59bd9653f200f220920489ca2b5937696c31910160405180910390a3505050565b6000848484604051602001611c2a93929190612f2e565b60408051601f1981840301815282825280516020918201206000818152600390925291902084905591507f1f7d6b0e2c7b9053e25fd5a11370286e2c393aa98a6deb98341b4a45a9703ed990610ac9908790879087908790612f62565b611c92848484611806565b611c9e8484848461211e565b61078c5760405162461bcd60e51b815260040161060690612f99565b60008383604051602001611ccf929190612e47565b60408051601f198184030181529181528151602092830120600081815260028452919091208451919350611d0892909190850190612228565b507f2a8420f1058b2e9bb2976e5d844f65dc6037ba75f017549cc9532f962ac89e1d84848460405161106e93929190612feb565b6040516301ffc9a760e01b8152631a89ddcb60e21b60048201526001600160a01b038216906301ffc9a79060240160206040518083038186803b158015611d8257600080fd5b505afa158015611d96573d6000803e3d6000fd5b505050506040513d601f19601f82011682018060405250810190611dba9190613027565b611dfe5760405162461bcd60e51b81526020600482015260156024820152747368656c6c3a20696e76616c696420656e67696e6560581b6044820152606401610606565b600180546001600160a01b0319166001600160a01b0383169081179091556040519081527fc025000b3eb797f8e47b27090b863e99fe6ca49d1291e6999840d85c3a4aa6c79060200160405180910390a150565b6000848484604051602001611e6993929190612f2e565b60408051601f198184030181529181528151602092830120600081815260028452919091208451919350611ea292909190850190612228565b507ffa0daffb33762695d4f24252774dfe2687db66512de5b07c240084cbddab692985858585604051610ac99493929190613044565b6001600160a01b038216611f2e5760405162461bcd60e51b815260206004820181905260248201527f4552433732313a206d696e7420746f20746865207a65726f20616464726573736044820152606401610606565b6000818152606a60205260409020546001600160a01b031615611f935760405162461bcd60e51b815260206004820152601c60248201527f4552433732313a20746f6b656e20616c7265616479206d696e746564000000006044820152606401610606565b611f9f60008383612026565b6001600160a01b0382166000908152606b60205260408120805460019290611fc8908490612ecb565b90915550506000818152606a602052604080822080546001600160a01b0319166001600160a01b03861690811790915590518392907fddf252ad1be2c89b69c2b068fc378daa952ba7f163c4a11628f55a4df523b3ef908290a45050565b604080516001808252818301909252600091602080830190803683375050604080516001808252818301909252929350600092915060208083019080368337019050509050828260008151811061207f5761207f612dae565b6020026020010181815250506001816000815181106120a0576120a0612dae565b60209081029190910101526001546040516301d3f2f560e51b81526001600160a01b0390911690633a7e5ea0906120e590309033908a908a90899089906004016130c2565b600060405180830381600087803b1580156120ff57600080fd5b505af1158015612113573d6000803e3d6000fd5b505050505050505050565b60006001600160a01b0384163b1561222057604051630a85bd0160e11b81526001600160a01b0385169063150b7a0290612162903390899088908890600401613110565b602060405180830381600087803b15801561217c57600080fd5b505af19250505080156121ac575060408051601f3d908101601f191682019092526121a991810190613143565b60015b612206573d8080156121da576040519150601f19603f3d011682016040523d82523d6000602084013e6121df565b606091505b5080516121fe5760405162461bcd60e51b815260040161060690612f99565b805181602001fd5b6001600160e01b031916630a85bd0160e11b14905061057a565b50600161057a565b82805461223490612a73565b90600052602060002090601f016020900481019282612256576000855561229c565b82601f1061226f57805160ff191683800117855561229c565b8280016001018555821561229c579182015b8281111561229c578251825591602001919060010190612281565b506122a89291506122ac565b5090565b5b808211156122a857600081556001016122ad565b6001600160e01b031981168114610fa757600080fd5b6000602082840312156122e957600080fd5b8135611470816122c1565b80356004811061230357600080fd5b919050565b60008083601f84011261231a57600080fd5b5081356001600160401b0381111561233157600080fd5b60208301915083602082850101111561092c57600080fd5b6000806000806060858703121561235f57600080fd5b612368856122f4565b93506020850135925060408501356001600160401b0381111561238a57600080fd5b61239687828801612308565b95989497509550505050565b60005b838110156123bd5781810151838201526020016123a5565b8381111561078c5750506000910152565b600081518084526123e68160208601602086016123a2565b601f01601f19169290920160200192915050565b60208152600061147060208301846123ce565b60006020828403121561241f57600080fd5b5035919050565b6001600160a01b0381168114610fa757600080fd5b6000806040838503121561244e57600080fd5b823561245981612426565b946020939093013593505050565b6000806000806060858703121561247d57600080fd5b612486856122f4565b935060208501356001600160401b038111156124a157600080fd5b6124ad87828801612308565b9598909750949560400135949350505050565b6000806000604084860312156124d557600080fd5b6124de846122f4565b925060208401356001600160401b038111156124f957600080fd5b61250586828701612308565b9497909650939450505050565b60008060006060848603121561252757600080fd5b833561253281612426565b9250602084013561254281612426565b929592945050506040919091013590565b6000806040838503121561256657600080fd5b50508035926020909101359150565b60006020828403121561258757600080fd5b813561147081612426565b80356003811061230357600080fd5b6000806000806000608086880312156125b957600080fd5b6125c286612592565b94506020860135935060408601356001600160401b038111156125e457600080fd5b6125f088828901612308565b96999598509660600135949350505050565b6000806000806000806080878903121561261b57600080fd5b61262487612592565b95506020870135945060408701356001600160401b038082111561264757600080fd5b6126538a838b01612308565b9096509450606089013591508082111561266c57600080fd5b5061267989828a01612308565b979a9699509497509295939492505050565b600080600080600080608087890312156126a457600080fd5b86356001600160401b03808211156126bb57600080fd5b6126c78a838b01612308565b909850965060208901359150808211156126e057600080fd5b506126ed89828a01612308565b909550935050604087013561270181612426565b9150606087013561271181612426565b809150509295509295509295565b8015158114610fa757600080fd5b6000806040838503121561274057600080fd5b823561274b81612426565b9150602083013561275b8161271f565b809150509250929050565b60008060008060006080868803121561277e57600080fd5b6125c2866122f4565b634e487b7160e01b600052604160045260246000fd5b604051601f8201601f191681016001600160401b03811182821017156127c5576127c5612787565b604052919050565b60006001600160401b038211156127e6576127e6612787565b50601f01601f191660200190565b6000806000806080858703121561280a57600080fd5b843561281581612426565b9350602085013561282581612426565b92506040850135915060608501356001600160401b0381111561284757600080fd5b8501601f8101871361285857600080fd5b803561286b612866826127cd565b61279d565b81815288602083850101111561288057600080fd5b8160208401602083013760006020838301015280935050505092959194509250565b6000806000806000606086880312156128ba57600080fd5b6128c3866122f4565b945060208601356001600160401b03808211156128df57600080fd5b6128eb89838a01612308565b9096509450604088013591508082111561290457600080fd5b5061291188828901612308565b969995985093965092949392505050565b60008060008060006060868803121561293a57600080fd5b6128c386612592565b6000806000806000806080878903121561295c57600080fd5b612624876122f4565b6000806000806060858703121561297b57600080fd5b61248685612592565b6000806040838503121561299757600080fd5b82356129a281612426565b9150602083013561275b81612426565b600080604083850312156129c557600080fd5b82356129d081612426565b915060208301356001600160401b038111156129eb57600080fd5b830160c0818603121561275b57600080fd5b634e487b7160e01b600052602160045260246000fd5b60048110612a2357612a236129fd565b60f81b9052565b612a348186612a13565b83600182015281836021830137600091016021019081529392505050565b612a5c8185612a13565b818360018301376000910160010190815292915050565b600181811c90821680612a8757607f821691505b60208210811415612aa857634e487b7160e01b600052602260045260246000fd5b50919050565b60208082526031908201527f4552433732313a207472616e736665722063616c6c6572206973206e6f74206f6040820152701ddb995c881b9bdc88185c1c1c9bdd9959607a1b606082015260800190565b60008060408385031215612b1257600080fd5b8251612b1d81612426565b6020939093015192949293505050565b6020808252601c908201527f4f776e61626c653a2063616c6c6572206973206e6f74206f776e657200000000604082015260600190565b60038110612b7457612b746129fd565b9052565b81835281816020850137506000828201602090810191909152601f909101601f19169091010190565b612bab8187612b64565b846020820152608060408201526000612bc8608083018587612b78565b90508260608301529695505050505050565b612be48188612b64565b856020820152608060408201526000612c01608083018688612b78565b8281036060840152612c14818587612b78565b9998505050505050505050565b612c2b8187612b64565b606060208201526000612c42606083018688612b78565b8281036040840152612c55818587612b78565b98975050505050505050565b600060208284031215612c7357600080fd5b81516001600160401b03811115612c8957600080fd5b8201601f81018413612c9a57600080fd5b8051612ca8612866826127cd565b818152856020838501011115612cbd57600080fd5b612cce8260208301602086016123a2565b95945050505050565b612ce18186612b64565b606060208201526000612cf8606083018587612b78565b905082604083015295945050505050565b6020808252601190820152707368656c6c3a206e6f7420656e67696e6560781b604082015260600190565b634e487b7160e01b600052601160045260246000fd5b6000600019821415612d5e57612d5e612d34565b5060010190565b6000808335601e19843603018112612d7c57600080fd5b8301803591506001600160401b03821115612d9657600080fd5b6020019150600581901b360382131561092c57600080fd5b634e487b7160e01b600052603260045260246000fd5b60008235603e19833603018112612dda57600080fd5b9190910192915050565b6000808335601e19843603018112612dfb57600080fd5b8301803591506001600160401b03821115612e1557600080fd5b60200191503681900382131561092c57600080fd5b600060208284031215612e3c57600080fd5b81356114708161271f565b612e518184612a13565b60008251612e668160018501602087016123a2565b919091016001019392505050565b60048110612b7457612b746129fd565b612e8e8185612e74565b606060208201526000612ea460608301856123ce565b9050826040830152949350505050565b600082821015612ec657612ec6612d34565b500390565b60008219821115612ede57612ede612d34565b500190565b6020808252602b908201527f496e697469616c697a61626c653a20636f6e7472616374206973206e6f74206960408201526a6e697469616c697a696e6760a81b606082015260800190565b612f388185612a13565b82600182015260008251612f538160218501602087016123a2565b91909101602101949350505050565b612f6c8186612e74565b836020820152608060408201526000612f8860808301856123ce565b905082606083015295945050505050565b60208082526032908201527f4552433732313a207472616e7366657220746f206e6f6e20455243373231526560408201527131b2b4bb32b91034b6b83632b6b2b73a32b960711b606082015260800190565b612ff58185612e74565b60606020820152600061300b60608301856123ce565b828103604084015261301d81856123ce565b9695505050505050565b60006020828403121561303957600080fd5b81516114708161271f565b61304e8186612e74565b83602082015260806040820152600061306a60808301856123ce565b828103606084015261307c81856123ce565b979650505050505050565b600081518084526020808501945080840160005b838110156130b75781518752958201959082019060010161309b565b509495945050505050565b6001600160a01b038781168252868116602083015285811660408301528416606082015260c0608082018190526000906130fe90830185613087565b82810360a0840152612c148185613087565b6001600160a01b038581168252841660208201526040810183905260806060820181905260009061301d908301846123ce565b60006020828403121561315557600080fd5b8151611470816122c156fea2646970667358221220c424e339ea0bd5734d54a6540d017bc2c7ced15c113d7d274338f38449c426cd64736f6c63430008090033",
  "linkReferences": {},
  "deployedLinkReferences": {}
}